:10000000D2C00000EDC00000EBC00000E9C000005D
:10001000E7C00000E5C00000E3C00000E1C0000050
:10002000DFC00000DDC00000DBC00000D9C0000060
:10003000D7C00000D5C000000C94DA0AD1C000007F
:10004000CFC00000CDC00000CBC00000C9C0000080
:10005000C7C00000C5C00000C3C00000C1C0000090
:10006000BFC00000BDC000000B04B70443056C080E
:100070008006F203F0034B07D2076C086C08EE030E
:10008000F70305A84CCDB2D44EB93836A9020C50AE
:10009000B9918688083CA6AAAA2ABE000000803F23
:1000A0000D0A000D0A003136303030303030003A61
:1000B00020002020465F43505500726F626F6C69CC
:1000C000622F64656C61792F64656C61792E6320A1
:1000D00032372E30392E323031352056312E302EF7
:1000E000300D0A000D0A0020205B656D7074795D8B
:1000F0000D0A0064656C61793A0D0A000D0A007200
:100100006F626F6C69622F656570726F6D2F6565C8
:1001100070726F6D2E632032372E30392E323031AF
:10012000352056312E302E300D0A000D0A000D0AF2
:10013000003A200020206164726573730065657069
:10014000726F6D3A0D0A000D0A0020205B656D701C
:1001500074795D0D0A00726F626F6C69622F73743F
:1001600072696E672F737472696E672E6320303503
:100170002E31302E323031352056312E312E300D89
:100180000A000D0A0020205B656D7074795D0D0A10
:1001900000737472696E673A0D0A0066616C73656C
:1001A00000747275650011241FBECFEFD8E0DEBF6A
:1001B000CDBF11E0A0E0B1E0E2E2F2E202C00590C2
:1001C0000D92AA32B107D9F721E0AAE2B1E001C04D
:1001D0001D92A93CB207E1F70E94650D0C940F1126
:1001E0000FCF86E084B988E28AB98FE087B9089595
:1001F000843160F490E0FC01EE0FFF1F8E0F9F1F13
:10020000FC01E858FE4F60834183228308958431C6
:1002100060F490E0FC01EE0FFF1F8E0F9F1FFC01AA
:10022000E858FE4F408351836283089594E19150D2
:1002300068F0E92FF0E09F01220F331FE20FF31F58
:10024000E858FE4F808361834283F1CF0895CF92B7
:10025000DF92EF92CF936B01E82EC4E1C15028F0FA
:100260006E2DA6018C2FD3DFF9CFCF91EF90DF90C9
:10027000CF900895843160F490E0FC01EE0FFF1FF1
:100280008E0F9F1FFC01E858FE4F108211821282D0
:100290000895CF93C4E1C15018F08C2FEBDFFBCF52
:1002A000CF91089500000000000000000000000051
:1002B0000000000008950F931F93CF93DF93809168
:1002C0002A01811119C080E090E0FC01EE0FFF1FB0
:1002D000E80FF91FDF01A858BE4F2C91E45CFE4FD8
:1002E000208311962C911197218312962C912283B1
:1002F00001968431910549F71BE0D4E0115009F4CF
:1003000063C03FEF3D0F353110F033E13D0F832FD8
:1003100090E0FC01EE0FFF1FDF01A80FB91FA45CE6
:10032000BE4F12964C9120912A01241710F4C4E07C
:1003300001C0C0E0DF01A80FB91FA45CBE4F119639
:100340004C91241708F4C8608E0F9F1FFC01E45CD9
:10035000FE4F8081281708F4C061DFEFD30FD5313D
:1003600010F0D3E1D30F8D2F90E0FC01EE0FFF1FB3
:10037000DF01A80FB91FA45CBE4F12963C91231752
:1003800008F4C062DF01A80FB91FA45CBE4F11962C
:100390003C91231708F4C0648E0F9F1FFC01E45C9E
:1003A000FE4F8081281708F4C06809E0015009F465
:1003B000A5CFC7FF02C0409A01C04098CC0F72DFA2
:1003C000429A70DF4298F2CF4198439A81E090E0E0
:1003D0000E94300B439880912A018F5F8A3018F475
:1003E00080932A0102C010922A01DF91CF911F91C0
:1003F0000F9108958F929F92AF92BF92CF92DF920A
:10040000EF92FF926B017C0149015A010E94710E2B
:100410000E94D90E0E940C0FA50194010E949C0F0E
:100420009B01AC01C701B6010E940C0EFF90EF903A
:10043000DF90CF90BF90AF909F908F900895CF9214
:10044000DF92EF92FF926B017C0120E030E0A90186
:100450000E94980F181624F0C701B601905802C0E8
:10046000C701B601FF90EF90DF90CF900895181666
:1004700019062CF4BC01990F880B990B08C066274C
:100480007727681B790B072E000C880B990B0C94AF
:100490000C0F0895382F282F217080FD12C06AE0BC
:1004A0000E94760D492F892F66E00E94760D9923D0
:1004B00051F0437051F03C3051F0323049F424E0B7
:1004C00007C020E005C021E003C022E001C023E016
:1004D000822F08958091370190913801A0913901C0
:1004E000B0913A018093330190933401A093350188
:1004F000B09336010E947F0A6093370170933801F0
:100500008093390190933A01089580E090E00E9431
:10051000DA0B0E94BD0B8A36974A49F40E94BD0B44
:1005200021E08A36974A09F020E0822F089580E082
:10053000089580E090E00E94DA0B8AE697EA0E9434
:10054000A00B8AE697EA0C94A00B80910D018230F3
:1005500011F584E090E00E94DA0B0E94BD0B9093AD
:100560000301809302010E94BD0B909305018093CB
:1005700004010E94BD0B90930701809306010E9425
:10058000BD0B90930901809308010E94BD0B9093CD
:100590000B0180930A0120910201309103018091A7
:1005A000040190910501820F931F20910601309163
:1005B0000701820F931F2091080130910901820FDA
:1005C000931F20910A0130910B01820F931F90938A
:1005D000010180930001089580910D01823011F591
:1005E00084E090E00E94DA0B809102019091030177
:1005F0000E94A00B80910401909105010E94A00B24
:1006000080910601909107010E94A00B8091080142
:10061000909109010E94A00B80910A0190910B0119
:100620000E94A00B209102013091030180910401EE
:1006300090910501820F931F2091060130910701CF
:10064000820F931F2091080130910901820F931F9F
:1006500020910A0130910B01820F931F90930101A9
:100660008093000108958EE090E00E94DA0B0C94D4
:10067000830BCF93C82F8EE090E00E94DA0B8C2F73
:10068000CF910C94660B80933B0180913701909140
:100690003801A0913901B0913A018093B80190934B
:1006A000B901A093BA01B093BB01089580930D01E5
:1006B000E0DF80910D01813019F0823031F1089531
:1006C0008AEA90E0909303018093020186E490E02F
:1006D000909305018093040186E290E090930701D6
:1006E000809306018BE090E09093090180930801CC
:1006F00089E090E090930B0180930A018AE291E0F7
:1007000090930101809300010DC0FFDE882361F00A
:100710001CDF80910001909101011816190614F058
:100720008CE003C081E001C08DE0ADCF5ADDF894CC
:100730000E94160C7894ADDDCBD6B6D694DFB6DF2A
:1007400080910D01823039F4609123017091240170
:100750008091250106C06091200170912101809156
:10076000220175DD88EE93E0D6D6B4CE2F923F926B
:100770004F925F926F927F928F929F92AF92BF92B1
:10078000CF92DF92EF92FF920F931F93CF93DF935D
:1007900000D000D0CDB7DEB740903701509038017F
:1007A0006090390170903A018091B8019091B9013F
:1007B000A091BA01B091BB01481A590A6A0A7B0A92
:1007C000E0913B018E2F90E0FC013197ED30F10577
:1007D00008F082C4EC5CFF4F0C94E70D14E11AC4DE
:1007E00014E154C324E1298305E010E01EC3C301D2
:1007F000B20128EE33E040E050E00E94A90D01E094
:1008000010E0643F71408105910510F000E010E0B8
:1008100064E1698351C4C301B20128EE33E040E0D2
:1008200050E00E94A90D1901C301B20120ED37E08B
:1008300040E050E00E94A90D683E7340810591059B
:1008400040F416E6812E982C16EAA12E1FE3B12E55
:1008500006C0812C912CB0E8AB2EBFE3BB2EC301A8
:10086000B20128EE33E040E050E00E94A90D2B01D8
:100870003C01F4E1FA8305E02A8121502A832F3FCD
:1008800009F42AC48A8106DE90E0FC01EE0FFF1F06
:100890008E0F9F1FFC01E25FFE4F20812983318173
:1008A0003B831281C1016A81861B9109837099275C
:1008B000892B71F0812F602F0E94760D282F832FB6
:1008C0000E94760D482F89810E94760D682F4CC0BA
:1008D000C301B2010E940A0F20E030E04AEF53E466
:1008E0000E94710E20E030E040E85FE30E940C0EB1
:1008F0006B017C0120E030E0A9010E94980FA70164
:10090000960118160CF05058C501B4010E940C0E47
:100910006B017C01612F70E080E090E00E940C0F81
:10092000A70196010E949C0F0E94DE0E162FEB81FC
:100930006E2F70E080E090E00E940C0FA7019601FE
:100940000E949C0F0E94DE0E6B83F9816F2F70E076
:1009500080E090E00E940C0FA70196010E949C0F7E
:100960000E94DE0E212F4B818A8142DC85CFC3019C
:10097000B2010E940A0F6B017C012091B4013091F9
:10098000B5014091B6015091B7010E949C0F20E043
:1009900030E04AEF54E40E94710E20E030E040EA7B
:1009A00052E40E940D0EA70196010E949C0F20E0C8
:1009B00030E04AE754E40E94710E0E94DE0E7C8310
:1009C0006B83CB0164E170E00E94820D8C0174E1C5
:1009D000B72EBA943FEFB31629F18B2D5BDD90E073
:1009E000FC01EE0FFF1F8E0F9F1FFC01E25FFE4F09
:1009F0005081418182812B2D30E02017310711F485
:100A000031E001C036E0632F0E94760D282F842F3D
:100A10000E94760D482F852F0E94760D682F8B2D12
:100A2000E7DBD7CF2091BD013091BE014091BF01DE
:100A30005091C001C701B6010E94980F87FF0AC0FC
:100A40008091C1019091C2016B817C816817790707
:100A500008F442C380910D01823079F48091BC0189
:100A600019DDE82FF0E0EE0FFF1FEE5FFE4F8081F3
:100A70009181019791838083AFDD84EF91E04BD525
:100A800029DD83E078C2C090BC018C2D03DDE82F06
:100A9000F0E09F01220F331FE20FF31FE25FFE4FD2
:100AA000108171817A8392819983833018F4813027
:100AB00088F093C0853008F00FC3C301B20122E370
:100AC00030E040E050E00E94A90D790104E1E5E04A
:100AD000DE2E0DC1C301B20128EE33E040E050E04C
:100AE0000E94A90D0E940A0F20E030E04AEF53E473
:100AF0000E94710E20E030E040E85FE30E940C0E9F
:100B00006B017C0120E030E0A9010E94980F1816CB
:100B100024F0F7FAF094F7F8F09420E030E040E2A7
:100B200051E4C701B6010E949C0F9B01AC0160E03B
:100B300070E080E291E40E940C0E0E94DE0E062F0F
:100B400020E030E040EE50E4C701B6010E949C0F67
:100B50000E94DE0E962EE9810E9F70011124EE0C8C
:100B6000FF1CFA81F09F60011124109F8001112465
:100B700094E1892E28E2A22EB12C8A947FEF871669
:100B800009F4AAC2882D86DC90E0FC01EE0FFF1F5D
:100B90008E0F9F1FFC01E25FFE4F308141818281F9
:100BA000B701899D600D711D1124CB01B501BED720
:100BB000262FC601949E800D911D112464E170E0E2
:100BC000B5D7462FC801939E800D911D112464E175
:100BD00070E0ACD7882D0CDBD0CFC301B20129EE79
:100BE00033E040E050E0B5D70E940A0F20E030E04B
:100BF00048E452E40E94710E0E94FF0F0E94D90E39
:100C00002B013C012AE030E040E050E0C4D74B012A
:100C10005C01D12CE12CF12CC61AD70AE80AF90A9A
:100C200080E2C80E83E0D81EE11CF11C8091BC015B
:100C3000B501A401480F511D611D711DD701C601E9
:100C400080529340A109B109481759076A077B07E9
:100C50000CF442C29BE04916510461047104BCF0DB
:100C6000C701B60124E130E040E050E094D7862F80
:100C700011DC90E0FC01EE0FFF1F8E0F9F1FFC01A7
:100C8000E25FFE4F108121812A8332813983C701BF
:100C9000B60124E130E040E050E07DD7862F412FBF
:100CA0005A816981B4DA6FEFC61AD60AE60AF60AE3
:100CB000BDCF802FEFDB9701201B31092370332735
:100CC000232BC1F090E0FC01EE0FFF1F8E0F9F1F42
:100CD000FC01E25FFE4F82816D2D08D7282F8181B4
:100CE00005D7482F808102D7682F802F81DA0150E5
:100CF00000F7F2C1412F5A816981802F88DAF7CF3E
:100D0000AAE0B0E0A301920168D728EB3BE040E005
:100D100050E01FD7D22E8AE0E82EE21A64E1F62EC8
:100D200005E010E0FA947FEFF71609F440C08F2D2C
:100D3000B1DB90E0FC01EE0FFF1F8E0F9F1FFC0147
:100D4000E25FFE4F3081418122818F2D90E0B8011A
:100D5000EDD6FB01EE0FFF1F6E0F7F1FFB01E35E61
:100D6000FE4FC080B18052812E9DC00111245D9D37
:100D7000800D911D112464E170E0D8D6262FE49EE9
:100D8000C0011124DB9C800D911D112464E170E0F1
:100D9000CDD6462FE39EC0011124DC9C800D911D11
:100DA000112464E170E0C2D68F2D22DABBCF80918E
:100DB000370190913801A0913901B0913A014091E9
:100DC0002F01509130016091310170913201841BEB
:100DD000950BA60BB70B883B9B40A105B10508F40A
:100DE0007BC187E050DC83E080930C0175C1F98101
:100DF0008F2F90E0B8019AD680910C0186131BC00A
:100E000031E0FB01EE0FFF1F6E0F7F1FFB01E35E62
:100E1000FE4F8281632F6AD6282F818167D6482FA3
:100E2000808164D6682F8981E3D929812150298363
:100E30002F3FE9F651C13AE0E4CF812F90E065E021
:100E400070E074D680910C01861719F190E001963C
:100E50008370992731E086179707D9F0330F330F46
:100E6000330F3E5FFB01EE0FFF1F6E0F7F1FFB0175
:100E7000E35EFE4F8281632F39D6282F818136D6DB
:100E8000482F808133D6682F812FB2D91150A8F610
:100E900023C130E0E3CFAAE0B0E0A30192019DD6E8
:100EA00028EB3BE040E050E054D6E22EE4E1FE2E99
:100EB00005E010E0FA943FEFF31609F441C08F2DDE
:100EC00090E0B80133D6FB01EE0FFF1F6E0F7F1FBE
:100ED000FB01E35EFE4F308141818281E0910C0194
:100EE000F0E0BF01660F771FE60FF71FE35EFE4FCE
:100EF000D080C180228190E0880F991F2E9D800DA7
:100F0000911D112464E170E011D6262F842F90E00A
:100F1000880F991FEC9C800D911D112464E170E0F5
:100F200005D6462F832F90E0880F991FED9C800DEA
:100F3000911D112464E170E0F9D58F2D59D9BACFF4
:100F40008091370190913801A0913901B0913A0117
:100F500040912B0150912C0160912D0170912E0137
:100F6000841B950BA60BB70B883B9B40A105B105D5
:100F700008F4B2C089E00F900F900F900F90DF91AE
:100F8000CF911F910F91FF90EF90DF90CF90BF9086
:100F9000AF909F908F907F906F905F904F903F9019
:100FA0002F9071CB80910C0190E0FC01EE0FFF1FA0
:100FB0008E0F9F1FFC01E35EFE4FC080D180E28058
:100FC000C301B20128EE33E040E050E0C2D5643FF7
:100FD00071408105910520F48E2DB60138D97CC071
:100FE00040E060E080E00F900F900F900F90DF9155
:100FF000CF911F910F91FF90EF90DF90CF90BF9016
:10100000AF909F908F907F906F905F904F903F90A8
:101010002F900CC9115008F45FC0812F3BDA90E08B
:101020009C01220F331F820F931FBC01625F7E4F12
:101030007C836B83C301B201EDD626E53EE049EC2B
:1010400050E47AD720E030E04AE755E44AD6F7D7B3
:1010500020E030E040E05FE36FD720E030E040E0A8
:101060005FE3DBD56B017C01EB81FC81628170E089
:1010700080E090E0D1D6A70196015ED79FD6062FDB
:10108000EB81FC81618170E080E090E0C5D6A70132
:10109000960152D793D6B62EEB81FC81608170E029
:1010A00080E090E0B9D6A701960146D787D6202FD9
:1010B0004B2D812F9DD8AECF2981215029832F3FE1
:1010C00059F0B801F9816F0F711D6170772720E029
:1010D00040E08F2F8DD8F0CF0F900F900F900F9092
:1010E000DF91CF911F910F91FF90EF90DF90CF9004
:1010F000BF90AF909F908F907F906F905F904F9038
:101100003F902F900895CF92DF92EF92FF920F932E
:101110001F93CF93DF9380910001909101011816E6
:10112000190614F0E12C30C0CBD1FC016091000114
:1011300070910101E7D4A2E0B1E0F12C2D913D9135
:101140008217930730F0821B930BF39425E0F21281
:10115000F5CF24E130E0CF01B901D4D48C01045C97
:101160001F4FC801B901CED4EC0184E1C82ED12CA7
:10117000CE01B601C7D4E82E8DD98F1529F023965C
:10118000C017D107A8F3CECF8E2DDF91CF911F913D
:101190000F91FF90EF90DF90CF900895CF92DF9264
:1011A000EF92FF92CF9380913B018130B1F0863076
:1011B00009F08CC088E067DA80913701909138019E
:1011C000A0913901B0913A0180932B0190932C01A9
:1011D000A0932D01B0932E0179C0809100019091D0
:1011E0000101181619060CF06AC08DDFF82E8093E5
:1011F000BC0150D9C82F609137017091380180919E
:10120000390190913A0125E030E040E050E0A1D46E
:101210009B01AC01215F3F4F4F4F5F4FAC2FB0E0C0
:101220001E96AA0FBB1FE3D427E230E040E050E057
:1012300090D484E1829FB001839F700D11246F0DC3
:10124000711D7093C2016093C101660F771F6F5FBC
:101250007F4F80E090E0DED59B01AC0160E070E064
:1012600088EC95EC3ED59B01AC016093B401709382
:10127000B5018093B6019093B70160E070E080EA19
:1012800092E42FD56B017C0120E030E0A90150D61B
:10129000181624F0F7FAF094F7F8F09420E030E014
:1012A0004AE754E4C701B60147D66093BD01709385
:1012B000BE018093BF019093C00182E001C08CE029
:1012C000CF91FF90EF90DF90CF90DDC9CF91FF904D
:1012D000EF90DF90CF90089580912B0190912C0199
:1012E000A0912D01B0912E01892B8A2B8B2B41F0DF
:1012F00010922B0110922C0110922D0110922E01B0
:1013000080913B01883019F0893019F0089586E00A
:1013100055C08091370190913801A0913901B09169
:101320003A014091B8015091B9016091BA017091B0
:10133000BB01841B950BA60BB70B883B9B40A105FB
:10134000B10508F43CC080910C01813099F028F07F
:10135000823091F0833091F0089580910001909156
:101360000101181619064CF180910D01813029F107
:101370008CE024C081E001C082E098C98AEA90E054
:10138000909303018093020186E490E0909305011D
:101390008093040186E290E0909307018093060118
:1013A0008BE090E0909309018093080189E090E040
:1013B00090930B0180930A010FD981E064C90895CD
:1013C00080913B018630B1F128F4813051F08330B7
:1013D00031F008958C3029F08D3071F1089584E05A
:1013E0002EC040912F0150913001609131017091D8
:1013F00032018091370190913801A0913901B0916B
:101400003A01411551056105710559F0841B950B91
:10141000A60BB70B893E9340A105B10588F085E086
:101420000EC080932F0190933001A0933101B093AF
:101430003201089587E003C07CD8CED881E023C96B
:10144000089580912F0190913001A0913101B091C8
:101450003201892B8A2B8B2B41F010922F01109295
:101460003001109231011092320180913B018530A0
:1014700021F0873069F08430B1F4809100019091BF
:1014800001011816190614F481E001C08CE0FBC8B4
:1014900086E0F9D880910C0190E00196837099273D
:1014A00080930C01089508951092800081E080934C
:1014B0008100109285001092840010926F000895B0
:1014C0002FB7F89480918400909185002FBF0895E4
:1014D00082E084BD94E095BD16BC9EE397BD8093E9
:1014E0006E0085BB08958FB7F8941092C3011092D7
:1014F000C4011092C5011092C6018FBF08952FB785
:10150000F8946091C3017091C4018091C5019091DC
:10151000C6012FBF08958F929F92AF92BF92CF9234
:10152000DF92EF92FF926C01EADF4B015C01E12C4C
:10153000F12CE5DFDC01CB0188199909AA09BB0967
:101540008C159D05AE05BF0510F47894F2CFFF9081
:10155000EF90DF90CF90BF90AF909F908F900895C5
:1015600020E83EEE46E350E0F4D2822F089520E6D4
:101570003AEE40E050E0EDD2CA01B9012CE330E090
:1015800040E050E0E6D2862F089528EE33E040E0B8
:1015900050E0DFD2CA01B9012CE330E040E050E076
:1015A000D8D2862F089528EE33E040E050E0D1D223
:1015B000CB0108951F920F920FB60F9211242F9313
:1015C0003F934F935F936F937F938F939F93AF93CB
:1015D000BF93CF93DF93EF93FF938091C3019091DB
:1015E000C401A091C501B091C6010196A11DB11D14
:1015F0008093C3019093C401A093C501B093C60129
:10160000CEE6D0E088818D7F888378940E945B014C
:10161000F894888182608883FF91EF91DF91CF9168
:10162000BF91AF919F918F917F916F915F914F91FA
:101630003F912F910F900FBE0F901F90189500971C
:1016400059F020ED37E000000000000000002150BC
:101650003109C9F70197F3CF08958A95F1F70895F5
:1016600034E3009729F0232F2A95F1F70197F9CF5A
:101670000895CF93DF93EC0163EF70E0C4D167EE80
:1016800070E0CE01C0D164EE70E0CE01DF91CF9169
:10169000BAC1CF93DF93EC016AEB70E0B4D14FE0B5
:1016A00062EB70E0CE01CBD16FEA70E0CE01ABD13E
:1016B00066EA70E0CE01A7D163EA70E0CE01A3D163
:1016C00060EA70E0CE01DF91CF919DC1682F8091DB
:1016D000C7019091C80182D58091C7019091C8013E
:1016E00001969093C8018093C7018091C7019091A2
:1016F000C8018115944030F08FEF93E09093C801BA
:101700008093C70108958091C7019091C80159D570
:101710002091C7013091C8012F5F3F4F3093C8011E
:101720002093C7012091C7013091C8012115344091
:1017300030F02FEF33E03093C8012093C7010895B4
:10174000BC018091C7019091C80156D58091C70115
:101750009091C80102969093C8018093C70180912F
:10176000C7019091C8018115944030F08FEF93E04C
:101770009093C8018093C70108958091C70190910B
:10178000C80127D52091C7013091C8012E5F3F4F76
:101790003093C8012093C7012091C7013091C8013F
:1017A0002115344030F02FEF33E03093C8012093FF
:1017B000C7010895811524E0920710F08FEF93E0A0
:1017C0009093C8018093C70108958091C7019091BB
:1017D000C8010895CF93DF93EC016DE371E013D15D
:1017E0004FE064E371E0CE012AD161E371E0CE0104
:1017F0000AD16091C7017091C80144E0CE011BD0AD
:101800006EE271E0CE01FFD06BE271E0CE01DF91BC
:10181000CF91F9C0CF93DF93EC016FEF70E0F3D07D
:101820006CEF70E0CE01DF91CF91EDC01092C80156
:101830001092C7010895DF92EF92FF920F931F93CA
:10184000CF93DF9300D000D01F92CDB7DEB77C01DD
:10185000CB01042F413208F000E210E02AE030E032
:10186000DD24D394D10EE1E0F0E0EC0FFD1FE10F99
:10187000F11DB90147D1805D8083CB01009711F044
:101880001D2DEECFD01628F480E2F7010995015006
:10189000F9CF1F3F59F0E1E0F0E0EC0FFD1FE10F41
:1018A000F11D8081F70109951150F3CF0F900F9032
:1018B0000F900F900F90DF91CF911F910F91FF909C
:1018C000EF90DF900895EF92FF920F931F93CF93C5
:1018D0007C018B01C42F77FF0DC011950195110973
:1018E0008DE2F7010995C13218F4CC2319F001C03B
:1018F000C0E2C1504C2FB801C701CF911F910F9189
:10190000FF90EF9098CFEF92FF920F931F93CF939A
:101910008C017B01C42F47FF07C0C19580E3F8010C
:10192000099588E7F8010995C53054F484E090E002
:101930008C1B9109C7FD9395C82FCC0FCC0F01C00C
:10194000C0E00C2E02C0EE0CFF1C0A94E2F7C0317E
:101950008CF48F2D82958F708A3010F4805D01C0D9
:10196000895CF801099584E0EE0CFF1C8A95E1F78B
:10197000CC5FEDCFCF911F910F91FF90EF90089525
:10198000EF92FF920F931F93CF93DF937C018B0114
:10199000D42F47FF07C0D19580E3F701099582E670
:1019A000F7010995D1311CF4C0E1CD1B01C0C0E0A5
:1019B0000C2E02C0000F111F0A94E2F7C0315CF434
:1019C00017FF02C081E301C080E3F7010995000F12
:1019D000111FCF5FF3CFDF91CF911F910F91FF9038
:1019E000EF9008950F931F93CF93DF938C01EB013A
:1019F0008991882319F0F8010995FACFDF91CF91E9
:101A00001F910F9108950F931F93CF93DF938C0134
:101A1000FB018491EB012196882321F0F8010995BF
:101A2000BE01F6CFDF91CF911F910F9108956623EC
:101A300019F061EA71E002C06BE971E0E4CFEF9266
:101A4000FF920F931F93CF93DF937C01CFEFC40FCF
:101A5000FB01CF3F99F084918F010F5F1F4FDFEFA4
:101A6000DC0F811106C0C15048F080E2F7010995F2
:101A7000FACFF7010995F801CD2FEBCFDF91CF9188
:101A80001F910F91FF90EF900895CF93DF93EC019A
:101A900061E971E0B8DF65E871E0CE01B4DF62E8CA
:101AA00071E0CE01DF91CF91AECFCF93DF93EC0108
:101AB00066E571E0A8DF6AE471E0CE01A4DF67E4C7
:101AC00071E0CE01DF91CF919ECF0E9496030E94DC
:101AD0006A02189902C062DB01C0FEDB4C9902C0A9
:101AE0006FDC01C0AEDC0E94B603F1CF991B79E038
:101AF00004C0991F961708F0961B881F7A95C9F79E
:101B000080950895AA1BBB1B51E107C0AA1FBB1FEC
:101B1000A617B70710F0A61BB70B881F991F5A9579
:101B2000A9F780959095BC01CD01089597FB072EEC
:101B300016F4009406D077FD08D0E4DF07FC05D04A
:101B40003EF4909581959F4F0895709561957F4FD4
:101B50000895A1E21A2EAA1BBB1BFD010DC0AA1FEE
:101B6000BB1FEE1FFF1FA217B307E407F50720F006
:101B7000A21BB30BE40BF50B661F771F881F991F81
:101B80001A9469F760957095809590959B01AC01CA
:101B9000BD01CF010895052E97FB16F400940FD0D8
:101BA00057FD05D0D6DF07FC02D046F408C050959B
:101BB0004095309521953F4F4F4F5F4F0895909539
:101BC0008095709561957F4F8F4F9F4F0895EE0FD1
:101BD000FF1F0590F491E02D09940FD0A59F900D63
:101BE000B49F900DA49F800D911D11240895B7FFFF
:101BF000F4CFF3DF821B930B0895A29FB001B39F34
:101C0000C001A39F700D811D1124911DB29F700D05
:101C1000811D1124911D08955058BB27AA270ED06D
:101C20004DC13ED130F043D120F031F49F3F11F44B
:101C30001EF433C10EF4E095E7FB29C1E92F4FD123
:101C400080F3BA17620773078407950718F071F4D9
:101C50009EF567C10EF4E0950B2EBA2FA02D0B0157
:101C6000B90190010C01CA01A0011124FF27591BE1
:101C700099F0593F50F4503E68F11A16F040A22FE7
:101C8000232F342F4427585FF3CF46953795279558
:101C9000A795F0405395C9F77EF41F16BA0B620B57
:101CA000730B840BBAF09150A1F0FF0FBB1F661F9E
:101CB000771F881FC2F70EC0BA0F621F731F841FE1
:101CC00048F4879577956795B795F7959E3F08F007
:101CD000B3CF9395880F08F09927EE0F97958795C6
:101CE00008950CD0EBC0E3D040F0DAD030F021F40E
:101CF0005F3F19F0CCC0511115C1CFC0F0D098F39F
:101D00009923C9F35523B1F3951B550BBB27AA277C
:101D100062177307840738F09F5F5F4F220F331FEE
:101D2000441FAA1FA9F333D00E2E3AF0E0E830D0BA
:101D300091505040E695001CCAF729D0FE2F27D0BD
:101D4000660F771F881FBB1F261737074807AB078B
:101D5000B0E809F0BB0B802DBF01FF2793585F4F00
:101D60002AF09E3F510568F092C0DCC05F3FECF363
:101D7000983EDCF3869577956795B795F7959F5FC5
:101D8000C9F7880F911D9695879597F90895E1E019
:101D9000660F771F881FBB1F621773078407BA0778
:101DA00020F0621B730B840BBA0BEE1F88F7E095D3
:101DB000089504D06894B111B5C0089598D088F002
:101DC0009F5790F0B92F9927B751A0F0D1F0660F27
:101DD000771F881F991F1AF0BA95C9F712C0B13042
:101DE00081F09FD0B1E008959CC0672F782F88279D
:101DF000B85F39F0B93FCCF3869577956795B39581
:101E0000D9F73EF490958095709561957F4F8F4FEF
:101E10009F4F0895E89409C097FB3EF490958095F4
:101E2000709561957F4F8F4F9F4F9923A9F0F92FA0
:101E300096E9BB279395F695879577956795B7951E
:101E4000F111F8CFFAF4BB0F11F460FF1BC06F5F04
:101E50007F4F8F4F9F4F16C0882311F096E911C016
:101E6000772321F09EE8872F762F05C0662371F037
:101E700096E8862F70E060E02AF09A95660F771F4B
:101E8000881FDAF7880F9695879597F9089597F93F
:101E90009F6780E870E060E008959FEF80EC089510
:101EA00000240A9416161706180609060895002439
:101EB0000A9412161306140605060895092E0394B3
:101EC000000C11F4882352F0BB0F40F4BF2B11F427
:101ED00060FF04C06F5F7F4F8F4F9F4F089557FD86
:101EE0009058440F551F59F05F3F71F04795880F88
:101EF00097FB991F61F09F3F79F08795089512161F
:101F000013061406551FF2CF4695F1DF08C01616CA
:101F100017061806991FF1CF86957105610508947B
:101F20000895E894BB2766277727CB0197F9089592
:101F30008CD008F48FEF08950BD0C0CFB1DF28F01C
:101F4000B6DF18F0952309F0A2CFA7CF1124EACF6E
:101F5000C6DFA0F3959FD1F3950F50E0551F629F08
:101F6000F001729FBB27F00DB11D639FAA27F00DF2
:101F7000B11DAA1F649F6627B00DA11D661F829F19
:101F80002227B00DA11D621F739FB00DA11D621FFE
:101F9000839FA00D611D221F749F3327A00D611D1B
:101FA000231F849F600D211D822F762F6A2F1124FD
:101FB0009F5750408AF0E1F088234AF0EE0FFF1F50
:101FC000BB1F661F771F881F91505040A9F79E3F87
:101FD000510570F05CCFA6CF5F3FECF3983EDCF389
:101FE000869577956795B795F795E7959F5FC1F7C4
:101FF000FE2B880F911D9695879597F9089577DFA9
:10200000E0F09E37D8F09639B8F49E3848F4672F40
:10201000782F8827985FF9CF869577956795939560
:102020009539D0F3B62FB1706B0F711D811D20F45F
:1020300087957795679593952CC046C073CF9F93EE
:1020400052D00F9007FCEE5F75C0990F0008550F36
:10205000AA0BE0E8FEEF16161706E807F907C0F02E
:1020600012161306E407F50798F0621B730B840B36
:10207000950B39F40A2661F0232B242B252B21F410
:1020800008950A2609F4A140A6958FEF811D811DB0
:102090000895882371F4772321F09850872B762FA9
:1020A00007C0662311F499270DC09051862B70E06C
:1020B00060E02AF09A95660F771F881FDAF7880F7D
:1020C0009695879597F908959F3F31F0915020F4A8
:1020D000879577956795B795880F911D9695879504
:1020E00097F90895DACE03DFE8F3E894E0E0BB2740
:1020F0009F57F0F02AED3FE049EC06C0EE0FBB0F12
:10210000661F771F881F28F0B23A6207730784079B
:1021100028F0B25A620B730B840BE3959A9572F711
:10212000803830F49A95BB0F661F771F881FD2F74F
:102130009048CCCFEF93E0FF06C0A2EA2AED3FE043
:1021400049EC5FEB7BDDBADE0F90039401FC905805
:10215000E2E8F0E000C09F938F937F936F93FF932B
:10216000EF939B01AC01E8DEEF91FF9105D02F9139
:102170003F914F915F91E0CEDF93CF931F930F93E9
:10218000FF92EF92DF927B018C01689405C0DA2EFA
:10219000EF01DEDEFE01E894A59125913591459190
:1021A0005591AEF3EF014ADDFE019701A801DA94E3
:1021B00079F7DF90EF90FF900F911F91CF91DF9112
:1021C0000895F999FECF92BD81BDF89A992780B5FF
:1021D0000895A8E1B0E042E050E013C0262FF9993D
:1021E000FECF1FBA92BD81BD20BD0FB6F894FA9AFA
:1021F000F99A0FBE01960895F1DF272FF0CFDC0189
:10220000CB01FC01F999FECF06C0F2BDE1BDF89A01
:10221000319600B40D9241505040B8F70895F894AB
:02222000FFCFEE
:102222006C02AA00460026000B0009000301000010
:102232000A000A000A00000A0A0A0A0A0000000A42
:0A224200000A000A0A000A0000006A
:00000001FF
