:10000000CDC00000E8C00000E6C00000E4C0000071
:10001000E2C00000E0C00000DEC00000DCC0000064
:10002000DAC00000D8C00000D6C00000D4C0000074
:10003000D2C00000D0C000000C941F08CCC000004B
:10004000CAC00000C8C00000C6C00000C4C0000094
:10005000C2C00000C0C00000BEC00000BCC00000A4
:10006000BAC00000B8C00000CD037104F704370720
:100070002806A306B703B90305A84CCDB2D44EB9E0
:100080003836A9020C50B9918688083CA6AAAA2A3B
:10009000BE000000803F0D0A000D0A0031363030EE
:1000A00030303030003A20002020465F4350550069
:1000B000726F626F6C69622F64656C61792F646521
:1000C0006C61792E632032372E30392E3230313543
:1000D0002056312E302E300D0A000D0A0020205BF4
:1000E000656D7074795D0D0A0064656C61793A0D17
:1000F0000A000D0A00726F626F6C69622F6565708D
:10010000726F6D2F656570726F6D2E632032372EA2
:1001100030392E323031352056312E302E300D0A06
:10012000000D0A000D0A003A20002020616472656B
:10013000737300656570726F6D3A0D0A000D0A00E9
:1001400020205B656D7074795D0D0A00726F626FBF
:100150006C69622F737472696E672F737472696E43
:10016000672E632030352E31302E32303135205617
:10017000312E312E300D0A000D0A0020205B656DF6
:100180007074795D0D0A00737472696E673A0D0AB6
:100190000066616C736500747275650011241FBE82
:1001A000CFEFD8E0DEBFCDBF11E0A0E0B1E0EEE5DB
:1001B000FEE102C005900D92AC31B107D9F721E004
:1001C000ACE1B1E001C01D92AB3BB207E1F70E9488
:1001D000A90A0C942D0F14CF86E084B988E28AB95D
:1001E0008FE087B90895843160F490E0FC01EE0F50
:1001F000FF1F8E0F9F1FFC01EA59FE4F6083418352
:1002000022830895843160F490E0FC01EE0FFF1F1B
:100210008E0F9F1FFC01EA59FE4F4083518362837A
:10022000089594E1915068F0E92FF0E09F01220FCA
:10023000331FE20FF31FEA59FE4F8083618342832D
:10024000F1CF0895CF92DF92EF92CF936B01E82E1A
:10025000C4E1C15028F06E2DA6018C2FD3DFF9CF59
:10026000CF91EF90DF90CF900895843160F490E0CB
:10027000FC01EE0FFF1F8E0F9F1FFC01EA59FE4F7E
:100280001082118212820895CF93C4E1C15018F0F8
:100290008C2FEBDFFBCFCF91089500000000000012
:1002A0000000000000000000000008950F931F935D
:1002B000CF93DF9380911C01811119C080E090E001
:1002C000FC01EE0FFF1FE80FF91FDF01AA59BE4F17
:1002D0002C91E65DFE4F208311962C91119721837E
:1002E00012962C91228301968431910549F71BE0E7
:1002F000D4E0115009F463C03FEF3D0F353110F0E9
:1003000033E13D0F832F90E0FC01EE0FFF1FDF0173
:10031000A80FB91FA65DBE4F12964C9120911C01EB
:10032000241710F4C4E001C0C0E0DF01A80FB91F1A
:10033000A65DBE4F11964C91241708F4C8608E0F2D
:100340009F1FFC01E65DFE4F8081281708F4C06105
:10035000DFEFD30FD53110F0D3E1D30F8D2F90E025
:10036000FC01EE0FFF1FDF01A80FB91FA65DBE4FF6
:1003700012963C91231708F4C062DF01A80FB91F41
:10038000A65DBE4F11963C91231708F4C0648E0FF2
:100390009F1FFC01E65DFE4F8081281708F4C068AE
:1003A00009E0015009F4A5CFC7FF02C0409A01C07F
:1003B0004098CC0F72DF429A70DF4298F2CF41989A
:1003C000439A81E090E090D6439880911C018F5F22
:1003D0008A3018F480931C0102C010921C01DF9136
:1003E000CF911F910F9108958F929F92AF92BF92DC
:1003F000CF92DF92EF92FF926B017C0149015A018B
:100400000E948F0C0E94F70C0E942A0DA5019401F6
:100410000E94BA0D9B01AC01C701B6010E942A0CD3
:10042000FF90EF90DF90CF90BF90AF909F908F9014
:100430000895CF92DF92EF92FF926B017C0120E052
:1004400030E0A9010E94B60D181624F0C701B601CC
:10045000905802C0C701B601FF90EF90DF90CF9097
:100460000895181619062CF4BC01990F880B990BE6
:1004700008C066277727681B790B072E000C880BAE
:10048000990B0C942A0D0895382F282F217080FD88
:1004900012C06AE00E94940B492F892F66E00E94E7
:1004A000940B992351F0437051F03C3051F03230AD
:1004B00049F424E007C020E005C021E003C022E0A9
:1004C00001C023E0822F089580912501909126019B
:1004D000A0912701B09128018093210190932201DE
:1004E000A0932301B09324014FD56093250170930D
:1004F00026018093270190932801089580E090E0E1
:100500009DD67FD68A36974A41F47BD621E08A363B
:10051000974A09F020E0822F089580E0089580E056
:1005200090E08CD68AE697EA4FD68AE697EA4CC6E0
:1005300080910C018230E1F484E090E07FD661D6B6
:1005400090930301809302015CD690930501809300
:10055000040157D6909307018093060152D69093D9
:100560000901809308014DD690930B0180930A01F5
:1005700020910201309103018091040190910501C5
:10058000820F931F2091060130910701820F931F64
:100590002091080130910901820F931F20910A01D7
:1005A00030910B01820F931F909301018093000102
:1005B000089580910C018230E1F484E090E03ED611
:1005C0008091020190910301FFD5809104019091E7
:1005D0000501FAD58091060190910701F5D580912A
:1005E000080190910901F0D580910A0190910B01C9
:1005F000EBD520910201309103018091040190918B
:100600000501820F931F2091060130910701820F8F
:10061000931F2091080130910901820F931F2091AF
:100620000A0130910B01820F931F90930101809377
:1006300000010895CF92DF92EF92FF920F931F93E4
:10064000CF93DF9380910001909101011816190654
:1006500014F0E12C34C079D4FC0160910001709158
:1006600001010E94A00BA2E0B1E0F12C2D913D917F
:100670008217930730F0821B930BF39425E0F2125C
:10068000F5CF24E130E0CF01B9010E94A00B8C012D
:10069000045C1F4FC801B9010E94A00BEC0184E16A
:1006A000C82ED12CCE01B6010E94A00BE82EECDEA4
:1006B0008F1529F02396C017D107A0F3CACF8E2D2E
:1006C000DF91CF911F910F91FF90EF90DF90CF902E
:1006D0000895809329018091250190912601A09190
:1006E0002701B09128018093AD019093AE01A093B2
:1006F000AF01B093B001089580930C0108952F923B
:100700003F924F925F926F927F928F929F92AF92A1
:10071000BF92CF92DF92EF92FF920F931F93CF93EE
:10072000DF9300D000D0CDB7DEB7409025015090C8
:10073000260160902701709028018091AD01909171
:10074000AE01A091AF01B091B001481A590A6A0AEE
:100750007B0AE09129018E2F90E0FC013197E8306F
:10076000F10508F084C3EC5CFF4F0C94050C14E118
:100770001CC3C301B20128EE33E040E050E00E9408
:10078000C70B01E010E0643F71408105910510F056
:1007900000E010E034E139835AC3C301B20128EE0E
:1007A00033E040E050E0F3D71901C301B20120ED7E
:1007B00037E040E050E0EBD7683E7340810591059B
:1007C00040F466E6862E982C66EAA62E6FE3B62ED7
:1007D00006C0812C912C50E8A52E5FE3B52EC301F5
:1007E000B20128EE33E040E050E0D1D72B013C01CC
:1007F000F4E1FA8305E02A8121502A832F3F09F48E
:1008000036C38A8141DE90E0FC01EE0FFF1F8E0FA0
:100810009F1FFC01E35FFE4F2081298331813B83D1
:100820001281C1016A81861B910983709927892BE6
:1008300059F0812F602F78D7282F832F75D7482F15
:10084000898172D7682F4AC0C301B2010E94280D66
:1008500020E030E04AEF53E40E948F0C20E030E0CB
:1008600040E85FE3F7D76B017C0120E030E0A901AD
:100870000E94B60DA701960118160CF05058C5013C
:10088000B401E8D76B017C01612F70E080E090E05B
:100890000E942A0DA70196010E94BA0D0E94FC0C2D
:1008A000162FEB816E2F70E080E090E00E942A0D01
:1008B000A70196010E94BA0D0E94FC0C6B83F9817E
:1008C0006F2F70E080E090E00E942A0DA701960152
:1008D0000E94BA0D0E94FC0C212F4B818A8183DC7F
:1008E0008ACFC301B2010E94280D6B017C012091C7
:1008F000A2013091A3014091A4015091A5010E9451
:10090000BA0D20E030E04AEF54E40E948F0C20E062
:1009100030E040EA52E49FD7A70196010E94BA0D49
:1009200020E030E04AE754E4FAD70E94FC0C7C83D4
:100930006B83CB0164E170E003D78C0134E1B32E0B
:10094000BA943FEFB31611F18B2D9EDD90E0FC01C0
:10095000EE0FFF1F8E0F9F1FFC01E35FFE4F5081C4
:10096000418182812B2D30E02017310711F431E0D5
:1009700001C036E0632FD8D6282F842FD5D6482F34
:10098000852FD2D6682F8B2D2EDCDACF2091A701B0
:100990003091A8014091A9015091AA01C701B60167
:1009A0000E94B60D87FF0AC08091AB019091AC0107
:1009B0006B817C816817790708F459C280910C011A
:1009C000823079F48091A6015FDDE82FF0E0EE0F30
:1009D000FF1FEE5FFE4F808191810197918380839D
:1009E000E8DD84EF91E0DCD26FDD83E0C7C1C09029
:1009F000A6018C2D49DDE82FF0E09F01220F331F67
:100A0000E20FF31FE35FFE4F108171817A839281C1
:100A10009983833018F4813080F08CC0853008F0E1
:100A200026C2C301B20122E330E040E050E0AFD67D
:100A3000790104E145E0D42E04C1C301B20128EEDE
:100A400033E040E050E0A3D60E94280D20E030E0E3
:100A50004AEF53E464D720E030E040E85FE3FAD6A1
:100A60006B017C0120E030E0A9010E94B60D181650
:100A700024F0F7FAF094F7F8F09420E030E040E248
:100A800051E4C701B6010E94BA0D9B01AC0160E0C0
:100A900070E080E291E4DED6AFD7062F20E030E0B0
:100AA00040EE50E4C701B6010E94BA0DA5D7962EBC
:100AB000E9810E9F70011124EE0CFF1CFA81F09F5A
:100AC00060011124109F80011124E4E18E2EF8E2D0
:100AD000AF2EB12C8A947FEF871609F4C8C1882DF8
:100AE000D3DC90E0FC01EE0FFF1F8E0F9F1FFC0177
:100AF000E35FFE4F308141818281B701899D600DA6
:100B0000711D1124CB01B5012FD6262FC601949E4D
:100B1000800D911D112464E170E026D6462FC80196
:100B2000939E800D911D112464E170E01DD6882DE7
:100B30005ADBD0CFC301B20129EE33E040E050E0F0
:100B400026D686D720E030E048E452E4E8D60E947A
:100B50001D0E4DD72B013C012AE030E040E050E073
:100B600038D64B015C01D12CE12CF12CC61AD70AE6
:100B7000E80AF90A80E2C80E83E0D81EE11CF11CE5
:100B80008091A601B501A401480F511D611D711D81
:100B9000D701C60180529340A109B10948175907EE
:100BA0006A077B070CF463C19BE04916510461049A
:100BB0007104BCF0C701B60124E130E040E050E030
:100BC00008D6862F61DC90E0FC01EE0FFF1F8E0F30
:100BD0009F1FFC01E35FFE4F108121812A83328138
:100BE0003983C701B60124E130E040E050E0F1D59F
:100BF000862F29814A81612FF6DA6FEFC61AD60A4D
:100C0000E60AF60ABDCF802F3FDC9701201B310991
:100C100023703327232BC1F090E0FC01EE0FFF1F60
:100C20008E0F9F1FFC01E35FFE4F82816D2D7CD5EF
:100C3000282F818179D5482F808176D5682F802F04
:100C4000D2DA015000F713C129814A81612FF7CF11
:100C500074EC471679E057066104710470F4AAE059
:100C6000B0E0A3019201D7D524EC39E040E050E098
:100C70008ED5822F40E06AE011C0A6EFBFEFA3013E
:100C80009201D5D5605B7C438F4F9F4F24EC39E0B8
:100C900040E050E07CD540E0622F8AE0C2DA8091EB
:100CA000250190912601A0912701B0912801409142
:100CB0001D0150911E0160911F0170912001841B44
:100CC000950BA60BB70B88389341A105B10508F425
:100CD000CEC086E0FEDC8CE291E09093030180932D
:100CE000020186E990E090930501809304019093BE
:100CF0000701809306018FE090E0909309018093B3
:100D0000080185E090E090930B0180930A018091A7
:100D10000C01823009F0ABC00F900F900F900F9034
:100D2000DF91CF911F910F91FF90EF90DF90CF90C7
:100D3000BF90AF909F908F907F906F905F904F90FB
:100D40003F902F9036CCC301B20128EE33E040E053
:100D500050E01DD5643F71408105910510F080E0A1
:100D600001C08AE040E060E05CDA28EB42162BE04C
:100D700052066104710408F47AC081E00F900F906C
:100D80000F900F90DF91CF911F910F91FF90EF90F7
:100D9000DF90CF90BF90AF909F908F907F906F909B
:100DA0005F904F903F902F9094CC115008F45FC00B
:100DB000812F6ADB90E0BC01660F771F860F971FBB
:100DC000FC01E35FFE4FFC83EB83C301B20140D61D
:100DD00026E53EE049EC50E4CDD620E030E04AE79D
:100DE00055E49DD54AD720E030E040E05FE3C2D62D
:100DF00020E030E040E05FE32ED56B017C01EB8129
:100E0000FC81628170E080E090E024D6A701960129
:100E1000B1D6F2D5062FEB81FC81618170E080E0D4
:100E200090E018D6A7019601A5D6E6D5B62EEB819F
:100E3000FC81608170E080E090E00CD6A701960113
:100E400099D6DAD5202F4B2D812FCDD9AECF298140
:100E5000215029832F3F59F0B801F9816F0F711D7F
:100E60006170772720E040E08F2FBDD9F0CF0F9041
:100E70000F900F900F90DF91CF911F910F91FF90E6
:100E8000EF90DF90CF90BF90AF909F908F907F902A
:100E90006F905F904F903F902F9008959DD9F89458
:100EA00009D27894F1D959D044D04C991CC082E031
:100EB00080930C0123DB882361F03ADB80910001F1
:100EC000909101011816190614F087E003C081E023
:100ED00001C088E0FEDB4AE06AE08AE0A2D988EE41
:100EE00093E05ED025C020910201309103018091F2
:100EF000040190910501820F931F2091060130910A
:100F00000701820F931F2091080130910901820F80
:100F1000931F20910A0130910B01820F931F909330
:100F200001018093000181E0D4DB81E080930C011A
:100F3000CBCA1092800081E08093810010928500DE
:100F40001092840010926F0008952FB7F89480914A
:100F50008400909185002FBF089582E084BD94E0C5
:100F600095BD16BC9EE397BD80936E0085BB08952A
:100F70008FB7F8941092B5011092B6011092B70194
:100F80001092B8018FBF08952FB7F8946091B50102
:100F90007091B6018091B7019091B8012FBF08956B
:100FA0008F929F92AF92BF92CF92DF92EF92FF9279
:100FB0006C01EADF4B015C01E12CF12CE5DFDC0187
:100FC000CB0188199909AA09BB098C159D05AE05A5
:100FD000BF0510F47894F2CFFF90EF90DF90CF90A0
:100FE000BF90AF909F908F90089520E83EEE46E32B
:100FF00050E0CDD3822F089520E63AEE40E050E055
:10100000C6D3CA01B9012CE330E040E050E0BFD3C1
:10101000862F089528EE33E040E050E0B8D3CA01AF
:10102000B9012CE330E040E050E0B1D3862F0895C1
:1010300028EE33E040E050E0AAD3CB0108951F92A0
:101040000F920FB60F9211242F933F934F935F93FC
:101050006F937F938F939F93AF93BF93CF93DF93C0
:10106000EF93FF938091B5019091B601A091B701E4
:10107000B091B8010196A11DB11D8093B501909367
:10108000B601A093B701B093B801CEE6D0E0888155
:101090008D7F888378940AD9F894888182608883C8
:1010A000FF91EF91DF91CF91BF91AF919F918F9180
:1010B0007F916F915F914F913F912F910F900FBE54
:1010C0000F901F901895009759F020ED37E0000021
:1010D00000000000000021503109C9F70197F3CF4B
:1010E00008958A95F1F7089534E3009729F0232FA6
:1010F0002A95F1F70197F9CF0895CF93DF93EC018B
:1011000069EE70E0C4D16DED70E0CE01C0D16AED42
:1011100070E0CE01DF91CF91BAC1CF93DF93EC01A4
:1011200060EB70E0B4D14FE068EA70E0CE01CBD163
:1011300065EA70E0CE01ABD16CE970E0CE01A7D1D9
:1011400069E970E0CE01A3D166E970E0CE01DF91DC
:10115000CF919DC1682F8091B9019091BA015CD661
:101160008091B9019091BA0101969093BA01809350
:10117000B9018091B9019091BA018115944030F084
:101180008FEF93E09093BA018093B9010895809115
:10119000B9019091BA0133D62091B9013091BA01C9
:1011A0002F5F3F4F3093BA012093B9012091B901CD
:1011B0003091BA012115344030F02FEF33E03093F5
:1011C000BA012093B9010895BC018091B9019091B1
:1011D000BA0130D68091B9019091BA0102969093EC
:1011E000BA018093B9018091B9019091BA0181153A
:1011F000944030F08FEF93E09093BA018093B9015F
:1012000008958091B9019091BA0101D62091B90158
:101210003091BA012E5F3F4F3093BA012093B9014C
:101220002091B9013091BA012115344030F02FEFEF
:1012300033E03093BA012093B9010895811524E079
:10124000920710F08FEF93E09093BA018093B90169
:1012500008958091B9019091BA010895CF93DF93D9
:10126000EC0163E371E013D14FE06AE271E0CE017B
:101270002AD167E271E0CE010AD16091B901709183
:10128000BA0144E0CE011BD064E271E0CE01FFD090
:1012900061E271E0CE01DF91CF91F9C0CF93DF938E
:1012A000EC0165EF70E0F3D062EF70E0CE01DF910A
:1012B000CF91EDC01092BA011092B9010895DF925A
:1012C000EF92FF920F931F93CF93DF9300D000D044
:1012D0001F92CDB7DEB77C01CB01042F413208F05D
:1012E00000E210E02AE030E0DD24D394D10EE1E00A
:1012F000F0E0EC0FFD1FE10FF11DB90121D2805D7F
:101300008083CB01009711F01D2DEECFD01628F46D
:1013100080E2F70109950150F9CF1F3F59F0E1E054
:10132000F0E0EC0FFD1FE10FF11D8081F701099541
:101330001150F3CF0F900F900F900F900F90DF91FF
:10134000CF911F910F91FF90EF90DF900895EF9252
:10135000FF920F931F93CF937C018B01C42F77FFD4
:101360000DC01195019511098DE2F7010995C13262
:1013700018F4CC2319F001C0C0E2C1504C2FB801C1
:10138000C701CF911F910F91FF90EF9098CFEF92EF
:10139000FF920F931F93CF938C017B01C42F47FFC4
:1013A00007C0C19580E3F801099588E7F801099520
:1013B000C53054F484E090E08C1B9109C7FD9395EF
:1013C000C82FCC0FCC0F01C0C0E00C2E02C0EE0C19
:1013D000FF1C0A94E2F7C0318CF48F2D82958F7038
:1013E0008A3010F4805D01C0895CF801099584E0C1
:1013F000EE0CFF1C8A95E1F7CC5FEDCFCF911F91EA
:101400000F91FF90EF900895EF92FF920F931F932B
:10141000CF93DF937C018B01D42F47FF07C0D19579
:1014200080E3F701099582E6F7010995D1311CF4B3
:10143000C0E1CD1B01C0C0E00C2E02C0000F111F87
:101440000A94E2F7C0315CF417FF02C081E301C0E7
:1014500080E3F7010995000F111FCF5FF3CFDF91F4
:10146000CF911F910F91FF90EF9008950F931F93CD
:10147000CF93DF938C01EB018991882319F0F80158
:101480000995FACFDF91CF911F910F9108950F9396
:101490001F93CF93DF938C01FB018491EB01219685
:1014A000882321F0F8010995BE01F6CFDF91CF9195
:1014B0001F910F910895662319F067E971E002C04A
:1014C00061E971E0E4CFEF92FF920F931F93CF9306
:1014D000DF937C01CFEFC40FFB01CF3F99F08491E4
:1014E0008F010F5F1F4FDFEFDC0F811106C0C1506E
:1014F00048F080E2F7010995FACFF7010995F80164
:10150000CD2FEBCFDF91CF911F910F91FF90EF90F7
:101510000895CF93DF93EC0167E871E0B8DF6BE7E4
:1015200071E0CE01B4DF68E771E0CE01DF91CF91C9
:10153000AECFCF93DF93EC016CE471E0A8DF60E401
:1015400071E0CE01A4DF6DE371E0CE01DF91CF91B8
:101550009ECFA4DC25E0C22ED12CE12CF12C37E269
:10156000832E912CA12CB12CC4E10E946402189905
:1015700075C080912901813009F070C0809100010F
:1015800090910101181619060CF066C053D8D82F97
:101590008093A6010E944402182F6091250170914A
:1015A00026018091270190912801A7019601EFD093
:1015B0009B01AC01215F3F4F4F4F5F4FA12FB0E028
:1015C0001E96AA0FBB1F31D1A5019401E0D0C29F86
:1015D000B001C39F700D11246D0F711D7093AC018C
:1015E0006093AB01660F771F6F5F7F4F80E090E0E5
:1015F0002FD29B01AC0160E070E088EC95EC8FD1BC
:101600009B01AC016093A2017093A3018093A4019C
:101610009093A50160E070E080EA92E480D12B0114
:101620003C0120E030E0A901A1D2181624F077FA9D
:10163000709477F8709420E030E04AE754E4C301F6
:10164000B20198D26093A7017093A8018093A90179
:101650009093AA0182E001C087E03BD880912901E4
:101660004C993BC0833071F018F4813069F059C057
:10167000873051F0883009F054C00E948F020E94D8
:10168000D9024AC084E04BC040911D0150911E0117
:1016900060911F0170912001809125019091260198
:1016A000A0912701B09128014115510561057105EF
:1016B00059F0841B950BA60BB70B893E9340A105EF
:1016C000B10578F185E02BC080931D0190931E0138
:1016D000A0931F01B093200124C040911D0150919F
:1016E0001E0160911F0170912001452B462B472B55
:1016F00041F010921D0110921E0110921F011092D4
:101700002001843011F0853061F4809100019091C6
:1017100001011816190614F481E001C087E00E9447
:1017200069030E947F0321CF991B79E004C0991FB0
:10173000961708F0961B881F7A95C9F7809508952B
:10174000AA1BBB1B51E107C0AA1FBB1FA617B707E7
:1017500010F0A61BB70B881F991F5A95A9F7809503
:101760009095BC01CD01089597FB072E16F40094C7
:1017700006D077FD08D0E4DF07FC05D03EF4909555
:1017800081959F4F0895709561957F4F0895A1E2CF
:101790001A2EAA1BBB1BFD010DC0AA1FBB1FEE1FEB
:1017A000FF1FA217B307E407F50720F0A21BB30B36
:1017B000E40BF50B661F771F881F991F1A9469F7B2
:1017C00060957095809590959B01AC01BD01CF010E
:1017D0000895052E97FB16F400940FD057FD05D001
:1017E000D6DF07FC02D046F408C0509540953095EE
:1017F00021953F4F4F4F5F4F08959095809570957D
:1018000061957F4F8F4F9F4F0895EE0FFF1F0590FB
:10181000F491E02D09940FD0A59F900DB49F900DE9
:10182000A49F800D911D11240895B7FFF4CFF3DF1D
:10183000821B930B0895A29FB001B39FC001A39F89
:10184000700D811D1124911DB29F700D811D1124F9
:10185000911D08955058BB27AA270ED04DC13ED1E7
:1018600030F043D120F031F49F3F11F41EF433C126
:101870000EF4E095E7FB29C1E92F4FD180F3BA17A9
:10188000620773078407950718F071F49EF567C126
:101890000EF4E0950B2EBA2FA02D0B01B90190018B
:1018A0000C01CA01A0011124FF27591B99F0593FCF
:1018B00050F4503E68F11A16F040A22F232F342F17
:1018C0004427585FF3CF469537952795A795F04065
:1018D0005395C9F77EF41F16BA0B620B730B840B7A
:1018E000BAF09150A1F0FF0FBB1F661F771F881F32
:1018F000C2F70EC0BA0F621F731F841F48F487958A
:1019000077956795B795F7959E3F08F0B3CF939578
:10191000880F08F09927EE0F9795879508950CD0BA
:10192000EBC0E3D040F0DAD030F021F45F3F19F0A3
:10193000CCC0511115C1CFC0F0D098F39923C9F391
:101940005523B1F3951B550BBB27AA2762177307C5
:10195000840738F09F5F5F4F220F331F441FAA1F79
:10196000A9F333D00E2E3AF0E0E830D09150504039
:10197000E695001CCAF729D0FE2F27D0660F771FE7
:10198000881FBB1F261737074807AB07B0E809F0C9
:10199000BB0B802DBF01FF2793585F4F2AF09E3F5E
:1019A000510568F092C0DCC05F3FECF3983EDCF379
:1019B000869577956795B795F7959F5FC9F7880FD7
:1019C000911D9695879597F90895E1E0660F771F29
:1019D000881FBB1F621773078407BA0720F0621BBA
:1019E000730B840BBA0BEE1F88F7E095089504D0B3
:1019F0006894B111B5C0089598D088F09F5790F0C1
:101A0000B92F9927B751A0F0D1F0660F771F881F23
:101A1000991F1AF0BA95C9F712C0B13081F09FD062
:101A2000B1E008959CC0672F782F8827B85F39F000
:101A3000B93FCCF3869577956795B395D9F73EF482
:101A400090958095709561957F4F8F4F9F4F08952A
:101A5000E89409C097FB3EF4909580957095619548
:101A60007F4F8F4F9F4F9923A9F0F92F96E9BB27FE
:101A70009395F695879577956795B795F111F8CF7A
:101A8000FAF4BB0F11F460FF1BC06F5F7F4F8F4FE5
:101A90009F4F16C0882311F096E911C0772321F0DB
:101AA0009EE8872F762F05C0662371F096E8862F73
:101AB00070E060E02AF09A95660F771F881FDAF7CA
:101AC000880F9695879597F9089597F99F6780E80D
:101AD00070E060E008959FEF80EC089500240A9480
:101AE0001616170618060906089500240A941216F9
:101AF0001306140605060895092E0394000C11F42C
:101B0000882352F0BB0F40F4BF2B11F460FF04C0D8
:101B10006F5F7F4F8F4F9F4F089557FD9058440F31
:101B2000551F59F05F3F71F04795880F97FB991F3C
:101B300061F09F3F79F087950895121613061406F9
:101B4000551FF2CF4695F1DF08C016161706180686
:101B5000991FF1CF86957105610508940895E89461
:101B6000BB2766277727CB0197F908958CD008F417
:101B70008FEF08950BD0C0CFB1DF28F0B6DF18F09B
:101B8000952309F0A2CFA7CF1124EACFC6DFA0F397
:101B9000959FD1F3950F50E0551F629FF001729F02
:101BA000BB27F00DB11D639FAA27F00DB11DAA1F21
:101BB000649F6627B00DA11D661F829F2227B00D6E
:101BC000A11D621F739FB00DA11D621F839FA00DF9
:101BD000611D221F749F3327A00D611D231F849F49
:101BE000600D211D822F762F6A2F11249F575040A0
:101BF0008AF0E1F088234AF0EE0FFF1FBB1F661F3B
:101C0000771F881F91505040A9F79E3F510570F0F3
:101C10005CCFA6CF5F3FECF3983EDCF386957795DB
:101C20006795B795F795E7959F5FC1F7FE2B880FEE
:101C3000911D9695879597F9089577DFE0F09E3787
:101C4000D8F09639B8F49E3848F4672F782F882753
:101C5000985FF9CF86957795679593959539D0F3E9
:101C6000B62FB1706B0F711D811D20F4879577958C
:101C7000679593952CC046C073CF9F9352D00F9019
:101C800007FCEE5F75C0990F0008550FAA0BE0E83E
:101C9000FEEF16161706E807F907C0F0121613062E
:101CA000E407F50798F0621B730B840B950B39F46E
:101CB0000A2661F0232B242B252B21F408950A26D4
:101CC00009F4A140A6958FEF811D811D08958823F9
:101CD00071F4772321F09850872B762F07C0662365
:101CE00011F499270DC09051862B70E060E02AF026
:101CF0009A95660F771F881FDAF7880F9695879554
:101D000097F908959F3F31F0915020F4879577958A
:101D10006795B795880F911D9695879597F90895C2
:101D2000DACE03DFE8F3E894E0E0BB279F57F0F05A
:101D30002AED3FE049EC06C0EE0FBB0F661F771F90
:101D4000881F28F0B23A62077307840728F0B25A56
:101D5000620B730B840BE3959A9572F7803830F41D
:101D60009A95BB0F661F771F881FD2F79048CCCF7C
:101D7000EF93E0FF06C0A2EA2AED3FE049EC5FEBFB
:101D80007BDDBADE0F90039401FC9058E8E7F0E0A9
:101D900000C09F938F937F936F93FF93EF939B016B
:101DA000AC01E8DEEF91FF9105D02F913F914F916B
:101DB0005F91E0CEDF93CF931F930F93FF92EF924B
:101DC000DF927B018C01689405C0DA2EEF01DEDE24
:101DD000FE01E894A5912591359145915591AEF379
:101DE000EF014ADDFE019701A801DA9479F7DF904F
:101DF000EF90FF900F911F91CF91DF910895F99986
:101E0000FECF92BD81BDF89A992780B50895A8E1CB
:101E1000B0E042E050E013C0262FF999FECF1FBA80
:101E200092BD81BD20BD0FB6F894FA9AF99A0FBE03
:101E300001960895F1DF272FF0CFDC01CB01FC01E3
:101E4000F999FECF06C0F2BDE1BDF89A319600B413
:0E1E50000D9241505040B8F70895F894FFCF1E
:101E5E006C022C01960096000F0005000100000A8E
:0C1E6E00000A000A00000A0A000A0A0A22
:00000001FF
